:020000040800F2
:1000000000000320B10400080105000801050008F4
:1000100001050008010500080105000800000000B6
:1000200000000000000000000000000001050008C2
:100030000105000800000000010500080105000896
:100040000105000801050008010500080105000878
:100050000105000801050008010500080105000868
:100060000105000801050008010500080105000858
:100070000105000801050008010500080105000848
:100080000105000801050008010500080105000838
:100090000105000801050008010500080105000828
:1000A0000105000801050008010500080105000818
:1000B0000105000801050008010500080105000808
:1000C00001050008010500080105000801050008F8
:1000D00001050008010500080105000801050008E8
:1000E00001050008010500080105000801050008D8
:1000F00001050008010500080105000801050008C8
:1001000001050008010500080105000801050008B7
:1001100001050008010500080105000801050008A7
:100120000105000801050008010500080105000897
:100130000105000801050008010500080105000887
:100140000105000801050008010500080105000877
:100150000105000801050008010500080105000867
:100160000105000801050008010500080105000857
:100170000105000801050008010500080000000055
:100180000105000801050008010500080105000837
:100190000105000801050008010500080105000827
:0C01A00001050008010500080105000829
:1001AC0010B5054C237833B9044B13B10448AFF3A5
:1001BC0000800123237010BD00000020000000000F
:1001CC004C05000808B5034B1BB103490348AFF3BA
:1001DC00008008BD00000000040000204C05000851
:1001EC00034AD2F8883043F47003C2F88830704761
:1001FC0000ED00E082B00190019B5A1E0192002B91
:10020C00FAD102B0704700002DE9F84F00F0E2F887
:10021C000127524B1F700025514B1D70514B1D7007
:10022C00514B1D70514B1D70514B1D6000F0C2F8AD
:10023C00A846A9463E464BE000F0A4F84D4B4FF4BF
:10024C0080729A610124454B1C704EE0002E56D1F1
:10025C0009F10109454A13780133DBB21370B9F186
:10026C00040F4CDD85F0010B414A13680133136018
:10027C00A5B900F087F83F4B4FF480729A61A3F553
:10028C0080633D4A9A61384B00221A705FFA8BF2F8
:10029C00344B1A70B046B1465D4630E000F08AF837
:1002AC00344B4FF080729A61A3F58063324A9A61A5
:1002BC002D4B00221A70E9E73048FFF79BFF06E050
:1002CC002F4B2D4A9A612D48FFF794FF274656462F
:1002DC00002DB1D100F06EF80A20FFF78BFF254BF3
:1002EC001B69C3F300241D4A1470224B1B69C3F312
:1002FC00403A1B4A82F800A013F4005FA6D1012DEE
:10030C00DAD0002CDFD1012FDDD1D8F1000208F0BA
:10031C00030302F0030258BF534203F101085FFAD2
:10032C0088F1114A1170032BCDD801A252F823F099
:10033C004D030008550300085D030008CD020008BA
:10034C000F4B01229A61BEE70D4B80229A61BAE7EE
:10035C000B4B4FF480429A61B5E700BF240000209C
:10036C00230000202200002021000020200000207B
:10037C001C0000200008024000008140E0930400B3
:10038C00000402400A4B1A6822F4403242F48032D4
:10039C001A605A6822F480725A609A6822F44032C9
:1003AC0042F400329A60DA6822F44032DA60704724
:1003BC0000080240064B1A6822F440321A60DA68D0
:1003CC0042F48032DA60DA6822F40032DA60704784
:1003DC0000080240314A136B43F006031363304BA1
:1003EC001A6822F440321A60DA6842F48032DA6019
:1003FC00DA6822F40032DA601A6822F040621A607D
:10040C00DA6822F08062DA60DA6842F00062DA6060
:10041C00A3F50063D3F8002422F0030242F001029A
:10042C00C3F80024D3F8082422F0030242F001029E
:10043C00C3F80824D3F80C2422F00302C3F80C24CC
:10044C0003F580631A6822F440421A601A6842F479
:10045C0080421A605A6822F080025A609A6822F42C
:10046C0040429A609A6842F480429A60DA6822F4B8
:10047C004042DA601A6842F080521A605A6822F4DC
:10048C0080425A609A6822F0405242F000529A60C0
:10049C00DA6822F04052DA60704700BF0038024040
:1004AC0000080240DFF834D00D480E490E4A0023F4
:1004BC0002E0D458C4500433C4188C42F9D30B4A0C
:1004CC000B4C002301E013600432A242FBD3FFF774
:1004DC0087FE00F011F8FFF797FE7047000003202D
:1004EC0000000020000000206C0500080000002027
:1004FC0028000020FEE7000070B50D4D0D4C641B6C
:10050C00A4100026A64209D10B4D0C4C00F018F893
:10051C00641BA4100026A64205D170BD55F8043BFF
:10052C0098470136EEE755F8043B98470136F2E759
:10053C0064050008640500086405000868050008E7
:10054C00F8B500BFF8BC08BC9E467047F8B500BFB4
:08055C00F8BC08BC9E46704784
:04056400D1010008B9
:04056800AD010008D9
:04000005080004B13A
:00000001FF
